:020000040800F2
:1000000098C1002079020008F51B0008FB180008C1
:10001000F11B0008DF0B0008292000080000000089
:100020000000000000000000000000005D1D00084E
:10003000750C000800000000F71B0008811E000876
:10004000930200089302000893020008930200083C
:10005000930200089302000893020008930200082C
:10006000930200089302000893020008930200081C
:10007000930200089302000893020008930200080C
:1000800093020008930200089302000893020008FC
:1000900093020008930200089302000893020008EC
:1000A00093020008930200089302000893020008DC
:1000B00093020008930200089302000893020008CC
:1000C00093020008930200089302000893020008BC
:1000D00093020008930200089302000893020008AC
:1000E000930200089302000893020008930200089C
:1000F000930200089302000893020008930200088C
:10010000930200089302000893020008930200087B
:10011000930200089302000893020008930200086B
:10012000930200089302000893020008930200085B
:10013000930200089302000893020008930200084B
:10014000930200089302000893020008930200083B
:10015000930200089302000893020008930200082B
:10016000930200089302000893020008930200081B
:10017000930200089302000893020008930200080B
:10018000930200089302000800F002F800F064F8FF
:100190000AA090E8000C82448344AAF10107DA45E2
:1001A00001D100F059F8AFF2090EBAE80F0013F0D0
:1001B000010F18BFFB1A43F001031847142F020068
:1001C000342F02000A444FF0000C10F8013B13F0EA
:1001D000070408BF10F8014B1D1108BF10F8015BA0
:1001E000641E05D010F8016B641E01F8016BF9D193
:1001F00013F0080F1EBF10F8014BAD1C0C1B09D1EA
:100200006D1E58BF01F801CBFAD505E014F8016B5B
:1002100001F8016B6D1EF9D59142D6D370470000ED
:100220000023002400250026103A28BF78C1FBD8FF
:10023000520728BF30C148BF0B607047642900F0E7
:10024000BB80732900F00F83002070471FB508F0B2
:100250006DFF1FBD10B510BD00F020FB1146FFF76C
:10026000F5FF05F009FA00F03EFB03B4FFF7F2FFDB
:1002700003BC01F0DBFE0000094880470948004745
:10028000FEE7FEE7FEE7FEE7FEE7FEE7FEE7FEE746
:10029000FEE7FEE704480549054A064B70470000A3
:1002A000891E000889010008987F002098C100205D
:1002B0009881002098810020704700000FB4044905
:1002C00010B503AA029800F0D3FA10BC5DF814FB35
:1002D000B80100200FB41CB5074B06AA7B44694641
:1002E0000090059800F095FA0020694600F0A4FA05
:1002F0001CBC5DF814FB0000590500002DE9F0411D
:100300000E460446002020622046E168884730B34C
:10031000252805D0D4E901219047206A401CF2E746
:10032000E168204600278847050018D0A5F1410064
:10033000192802D820354FF4006732462946204656
:100340002760FFF77BFF40B1012804D0F61D26F09F
:1003500007060836D8E7361DD6E72846DAE7206ACA
:10036000BDE8F08170B50C460546012A05D0287815
:10037000800600D5EA69002302E0012305E05B1C4A
:10038000934202D2E05C0028F9D1A869E618C01AAD
:10039000A861286A184428622846AFF3008004E068
:1003A000D5E9012114F8010B9047B442F8D328464F
:1003B000AFF3008070BD00002DE9F0410646002437
:1003C00010687529314615A510D0AFF300800028BC
:1003D00002DA404212A507E031688A0701D511A56B
:1003E00002E0490704D510A5012401E0AFF3008025
:1003F00000210A2306F1240707E0B0FBF3F203FB18
:100400001200303078541046491C0028F5D123469C
:100410002A463046BDE8F04100F09CB900000000DB
:100420002D0000002B00000020000000401ECAB27A
:1004300010F8011F8A4202D00029F9D1002070472C
:1004400030B505460B462A4613F8014B12F8010B4E
:1004500008B1A042F8D01CB1002802D06D1CF1E711
:10046000284630BD40EA010310B59B070FD1042A8E
:100470000DD310C808C9121F9C42F8D020BA19BA6F
:10048000884201D9012010BD4FF0FF3010BD1AB1D4
:10049000D30703D0521C07E0002010BD10F8013B29
:1004A00011F8014B1B1B07D110F8013B11F8014B50
:1004B0001B1B01D1921EF1D1184610BD10B5431C73
:1004C00002E010F8011B71B18107FAD14FF001323F
:1004D00002C88C1A8C4314EAC211F9D0C01A0A0659
:1004E00003D0C01E10BDC01A10BD0A0401D0801E6A
:1004F00010BD0902FCD0401E10BD40EA010370B5DA
:100500009B072ED14FF00136042A2AD308C810C900
:100510009D1B9D43121F15EAC61517D0D8B2E1B234
:10052000401A50EA056110D198B2A1B2401A50EABF
:1005300005410AD123F07F4024F07F41401A50EA60
:10054000052102D1180EA0EB146070BDA342DBD0D0
:1005500018BA21BA884201D9012070BD4FF0FF308E
:1005600070BD0AB9002070BD10F8013B11F8014BB5
:1005700063B1A3420AD1521E08D010F8013B11F812
:10058000014B1BB1A34201D1521EEDD1181B70BD0E
:10059000032A40F2308010F0030C00F0158011F8AF
:1005A000013BBCF1020F624498BF11F801CB00F887
:1005B000013B38BF11F8013BA2F1040298BF00F8DB
:1005C00001CB38BF00F8013B11F0030300F0258098
:1005D000083AC0F0088051F8043B083A51F804CBBF
:1005E000A0E80810F5E7121D5CBF51F8043B40F885
:1005F000043BAFF30080D20724BF11F8013B11F890
:1006000001CB48BF11F8012B24BF00F8013B00F8D3
:1006100001CB48BF00F8012B704710B5203AC0F05D
:100620000B80B1E81850203AA0E81850B1E81850F3
:10063000A0E81850BFF4F5AF5FEA027C24BFB1E830
:100640001850A0E8185044BF18C918C0BDE81040A1
:100650005FEA827C24BF51F8043B40F8043B08BFAA
:100660007047D20728BF31F8023B48BF11F8012B71
:1006700028BF20F8023B48BF00F8012B70474FF01D
:10068000000200B5134694469646203922BFA0E8E2
:100690000C50A0E80C50B1F12001BFF4F7AF0907EE
:1006A00028BFA0E80C5048BF0CC05DF804EB8900DF
:1006B00028BF40F8042B08BF704748BF20F8022B22
:1006C00011F0804F18BF00F8012B70474FF0013C2C
:1006D00050F8042B51F8043B9A4221D1A2EB0C03B1
:1006E000934313EACC1317D150F8042B51F8043B71
:1006F0009A4215D1A2EB0C03934313EACC130BD10E
:1007000050F8042B51F8043B9A4209D1A2EB0C0398
:10071000934313EACC13DBD04FF00000704700BFC7
:10072000D01A01BAB1FA81F101F0180122FA01F0F0
:10073000CB40C1F12001DBB2C0B2C01A2CFA01F3E8
:10074000D11A914311EAC311E6D17047704770473F
:10075000704770472DE9F0470D469946924604468A
:1007600000F124080168880604D5E06921F0100131
:10077000216000E00120A84201DD471B00E00027C6
:10078000A1697A1902EB0900081AA0612078C00655
:1007900002D42046AFF30080002608E0D4E901210E
:1007A0001AF806009047206A401C761C20624E45CD
:1007B000F4DB2078C0060AD52046AFF3008006E0BF
:1007C000D4E9012130209047206A401C2062381E65
:1007D000A7F10107F4DC07E0D4E9012118F80500CE
:1007E0009047206A401C2062281EA5F10105F3DC19
:1007F0002046AFF300802078000602D50220BDE835
:10080000F0870120FBE7000001694A1C02610878BB
:10081000704700B58FB0CDE9013100210591054940
:100820007944CDE9031011466846FFF767FD0FB024
:1008300000BD0000E5FFFFFF0A6802F8010B0A6037
:10084000704710B5436913B1AFF3008001E0FFF7C3
:1008500089FD012010BD127800F124010A700022E8
:100860004A700122EDE711684FF0FF32E9E700001E
:10087000074B70B50D467B44FFF7CBFF0446284677
:1008800000F008F810B14FF0FF3070BD204670BD89
:10089000FB310000007B00F080007047754600F0DF
:1008A00029F8AE4605006946534620F00700854604
:1008B00018B020B5FFF7EEFCBDE820404FF0000671
:1008C0004FF000074FF000084FF0000B21F0070138
:1008D000AC46ACE8C009ACE8C009ACE8C009ACE87B
:1008E000C0098D4670470446AFF300802046FFF7ED
:1008F000BCFC000000487047387F002021B18268AE
:1009000042F00102826003E0826822F0010282600C
:10091000704700000021084A1168084A1140D0E9D8
:1009200000231A4383681A43C3681A431143044AD5
:10093000C2F804137047000004230140E030FCFFBC
:100940000020014000B58DB00121880201F074F94A
:100950000120019003208DF8080000208DF80B0085
:1009600001A9184800F05AFF002003904FF400300E
:10097000049000200590069003A8FFF7CBFF07A87E
:1009800000F023F9002007908DF8200001208DF859
:100990002100002009900B9001208DF8300007A95C
:1009A000094800F087F8032301220721064800F0D8
:1009B000ABF801210448FFF7A1FF034800F000F95C
:1009C0000DB000BD00040240002201400146C86C89
:1009D00080B270472DE9F05F2DED048B82460C4606
:1009E0009346BAF1000F5AD100BF00BF00BF00BF4D
:1009F00000BF2C480068012804D1FFF7A3FF0020A6
:100A0000284908602848FFF7E1FF0646304608F00D
:100A10007CFA9FED260B53EC102B08F089FA08F0B6
:100A200047FA06464FF47A70B6FBF0F0C5B205EB14
:100A30004500C0EBC510A6EBC0006421B0FBF1F08F
:100A4000C7B24FF47A7015FB00F007EBC70101EB5A
:100A5000071100EB8100301A0A21B0FBF1F8E82001
:100A600015FB00F007EBC70101EB071100EB81005C
:100A700008EB880100EB4100A6EB000905F130000E
:100A8000207007F13000607008F13000A07009F1AB
:100A90003000E0700420BDEC048BBDE8F09F002026
:100AA000F9E70000A4000020002201409A999999DA
:100AB0009999E93F30B50246002000235068104C58
:100AC00020400D790C6844EA05242043506090686A
:100AD0000C4C2040D1E903542C438D682C434D79B4
:100AE00044EA450420439060D06A20F470000C7DF5
:100AF000641EE4B2234340EA0350D06230BD0000DC
:100B0000FFFEFFFCFDF7FFC0F0B504460D460020D8
:100B10000021092D11DDE068A5F10A0606EB460764
:100B2000072606FA07F18843A5F10A0606EB4606F2
:100B300003FA06F10843E0600CE0206905EB450785
:100B4000072606FA07F1884305EB450603FA06F186
:100B500008432061072A0FDA606B561E06EB8607F2
:100B60001F2606FA07F18843561E06EB860605FA8D
:100B700006F10843606322E00D2A0FDA206BD61FCE
:100B800006EB86071F2606FA07F18843D61F06EBF9
:100B9000860605FA06F10843206310E0E06AA2F138
:100BA0000D0606EB86071F2606FA07F18843A2F119
:100BB0000D0606EB860605FA06F10843E062F0BD75
:100BC000816841F0804181607047002101600171BE
:100BD00041718160C160016101210175704700BFF1
:100BE000FEE7000010B586B004460121084601F07A
:100BF00003F80121102001F01FF8072209211B48EA
:100C000000F054FE07220A21184800F04FFE4FF46E
:100C1000C060049002208DF8150000208DF81600A9
:100C200001208DF8170002208DF8140004A90F4848
:100C300000F0F4FD00940020ADF80400ADF80600CB
:100C4000ADF80800ADF80C000C20ADF80A006946BC
:100C5000074801F07BF90121054801F05EF94021C8
:100C6000034801F051F906B010BD00000000024039
:100C7000001001407047000030B585B000F0E2F987
:100C800000F012FC51480068002872D1009050A07A
:100C9000FFF714FB68E00021084600F0E1FC53492F
:100CA00008600121002000F0DBFC514908600221AE
:100CB000002000F0D5FC4F4908600321002000F01F
:100CC000CFFC4D4908600421002000F0C9FC4B49CD
:100CD00008600521002000F0C3FC49490860062196
:100CE000002000F0BDFC474908601121002000F001
:100CF000B7FC454908601221002000F0B1FC4349CF
:100D000008601A21002000F0ABFC414908601B215B
:100D1000002000F0A5FC3F4908601D21002000F0E4
:100D20009FFC3D4908601E21002000F099FC3B49D2
:100D300008601F21002000F093FC394908604FF43F
:100D4000A2420021084600F035FD00BF0098401C7B
:100D500000900121002000F083FC00F0040018B98D
:100D6000304900988842F1D318480068002892D092
:100D700000BF042001F070F801A800F06DFF6422AC
:100D80000298B0FBF2F1481EB0F1807F00D31BE067
:100D9000481E4FF0E022506150170F22002807DA5A
:100DA00013071D0E204B00F00F04241F1D5503E0F8
:100DB00013071C0E1D4B1C5400BF00204FF0E022F7
:100DC00090610720106100BF05B030BD74010020A4
:100DD0000A0D2045746865726E657420496E6974E9
:100DE000206661696C65640A0D0000007C010020CA
:100DF0008001002084010020880100208C01002057
:100E00009001002094010020980100209C01002006
:100E1000A0010020A4010020A8010020AC010020B6
:100E2000B0010020FFFF040018ED00E000E400E046
:100E30002F480068006800F0004098B92C4800680E
:100E4000006800F4807068B1294800682949096881
:100E50004860284800688068401C26490968886006
:100E60000120704722480068006800F00040F0B997
:100E70001F480068006800F40070C0B11C4800689A
:100E8000006800F4807090B9194800681949096831
:100E90000860002017490968486001201549096861
:100EA000886013480068C068114908601DE0104858
:100EB0000068006800F00040B8B90D48006800689C
:100EC00000F4007088B90A480068006800F4807077
:100ED00058B9084800688068401C0649096888605D
:100EE00003480068C068024908600020B9E70000B4
:100EF000D0010020D401002030B10749896941F0B8
:100F00000201054A916105E00349896921F0020166
:100F1000014A9161704700000090024070B50C4694
:100F200013460021124D286000BF18E000EB41126B
:100F30004FF00045156044F2F4555560C1EBC11502
:100F400005EB450504EB850595605D1E8D4204D9D2
:100F500000EB41152035D56000E0D060491C994276
:100F6000E4D3044DE860044D044E356070BD0000CC
:100F7000D001002000900240242C0020D401002049
:100F800030B10749896941F40051054A916105E092
:100F90000349896921F40051014A916170470000B9
:100FA0000090024030B50C46134600210F4D2860DA
:100FB00000BF15E000EB41124FF480151560C1EB46
:100FC000C11505EB450504EB850595605D1E8D4259
:100FD00004D900EB41152035D56000E0D060491CF4
:100FE0009942E7D3024D286130BD0000CC010020BA
:100FF0000090024002680A430260704710B5012168
:10100000480600F009FE00214FF0007000F004FED9
:1010100010BD01B581B0002000900198009002E061
:101020000098401E009000980028F9D10CBD0000E7
:101030000348806940F480100149886170470000CE
:10104000009002401CB50121072000F0D5FD0121D0
:10105000880300F0F1FD4FF48070009003208DF8BC
:10106000050002208DF8040000208DF806008DF8A0
:1010700007006946384800F0D1FB012000F070FEFF
:101080004FF0A0614FF4C00000F05AFE862000909F
:101090006946314800F0C2FB0B2201212E4800F0C6
:1010A00005FC0B2202212C4800F000FC0B2207213A
:1010B000294800F0FBFB322000906946274800F0E9
:1010C000ADFB0B220121254800F0F0FB0B2204218F
:1010D000224800F0EBFB0B220521204800F0E6FB44
:1010E0004FF46050009069461D4800F097FB0B22BA
:1010F00011461B4800F0DAFB0B220C21184800F0C7
:10110000D5FB0B220D21164800F0D0FB04200090E7
:1011100003208DF8050001208DF8040000208DF8D3
:1011200006008DF8070069460D4800F077FB0421A2
:101130000B4800F0DEFB002400E0641C09488442F8
:10114000FBDB0421064800F0D6FB002400E0641C11
:1011500004488442FBDB1CBD000002400008024042
:101160000004024040420F0000200449096801F0D9
:10117000010109B1012000E0002070470090024009
:101180001EB500210022009201920292114A1268BB
:101190001268C2F30D42111F00910F4A1268926843
:1011A000012A05D90C4A126812689268019203E07C
:1011B000084A126892680192064A12680292054A29
:1011C0001268D268034B1A609DE81C0080E81C007E
:1011D0001EBD0000D0010020D40100202DE9F04107
:1011E00086B004460F464FF0000800250020059009
:1011F000954E00909548056925F01C0501A800F062
:101200002BFD029E9248864205D39248864202D226
:1012100045F008051AE08F48864205D38A48864281
:1012200002D245F00C0511E08748864203D38A4874
:10123000864200D20AE08848864205D38748864223
:1012400002D245F0040501E045F010057F48056134
:101250004FF400420021384600F0ACFA18B90020E3
:1012600006B0BDE8F0817E48FFF7D3FE2068002875
:101270004ED000BF0098401C00900121384600F07D
:10128000EFF900F0040018B9764900988842F1D3CC
:1012900074490098884201D10020E1E700200090C5
:1012A0004FF480520021384600F084FA08B900203B
:1012B000D6E700BF0098401C00900121384600F09E
:1012C000CFF900F0200018B9664900988842F1D3A0
:1012D00064490098884201D10020C1E700200090B5
:1012E0001F21384600F0BCF9804608F0100018B104
:1012F0004FF40060206201E00020206208F004004A
:1013000010B10020606116E04FF48040606112E08F
:10131000206AC0F3CF006169C1F34F0140EA0102C6
:101320000021384600F046FA08B9002098E76FF02F
:101330007F40FFF76EFE454805684B480540D4E9FD
:1013400001010843E16808432169084361690843D2
:10135000A1690843E1690843216A0843616A0843B7
:10136000A16A0843E16A0843216B0843616B0843A3
:10137000054336480560D4E90E010843216C084353
:10138000616C0843A16C0843E16C0843216D08437C
:10139000616D08432D494860A06D8860E06DC860AC
:1013A000084685694FF641700540B4F86010606EDC
:1013B00040EA0140A16E0843E16E0843216F0843F3
:1013C000616F0843054321488561D4E91E01084344
:1013D0001E49C8612548856925480540D4E9200192
:1013E0000843D4F888100843D4F88C100843D4F884
:1013F00090100843D4F894100843D4F89810084388
:10140000D4F89C100843D4F8A010084305431748AB
:101410008561D4E929010843D4F8AC100843D4F815
:10142000B0100843D4F8B41040EA8100D4F8B810E2
:10143000084340F400000D4908600846006840F089
:101440008000086001200BE70087930300800240C2
:10145000002D3101C00E160200E1F50580D1F00823
:10146000FFFF0F00FFFF04000F8120FF00900240EC
:10147000233FDEF810B50B794C7943EA0422094B7F
:1014800003441A64CB781B068C7843EA04434C78F7
:1014900043EA04230C7843EA0402024B03445A64EF
:1014A00010BD00000080024000B5AFB001214FF038
:1014B000606000F0A1FBFFF7A1FD00F007F900BF9D
:1014C000FFF752FE0128FBD0684600F019F9012011
:1014D0000090002007904FF400700A9000200B90BD
:1014E0000E9011901390149015904FF48060099015
:1014F000002020904FF000702190001123900020D8
:101500002590269004202890C005299040122A900A
:1015100080012B9040122C9040002E9000216846B4
:10152000FFF75CFE014908602FB000BD7401002088
:1015300030B10749096841F00401054A116005E02E
:101540000349096821F00401014A11607047000055
:101550000080024030B10749096841F00801054A9E
:10156000116005E00349096821F00801014A116092
:10157000704700000080024070B50246002300253D
:10158000002435480068006800F0004008B10020E1
:1015900070BD3148016840F2F450824208DD92FB90
:1015A000F0F392FBF0F600FB162010B15B1C00E09C
:1015B0000123012B1AD128480068006840F04050F0
:1015C000254E36683060C2F30C00234E36687060DA
:1015D00021480068006840F000401F4E36683060C7
:1015E0001D480068C0681C4E306028E0002422E0DE
:1015F0003CB919480068006840F08050164E3668C3
:10160000306040F2F4504860581EA0420DD1086886
:1016100040F000500860581EC0EBC01000EB4000C6
:10162000A2EB8005C5F30C004860086840F000405C
:101630000860C968641C9C42DAD307480160074807
:10164000406900F0040020B10420044E70610020C5
:10165000706001209CE70000CC0100200090024057
:1016600018B502460B46002100200090154801697C
:1016700001F01C014FF4784000EAC22001434FF40E
:10168000F86000EA8310014321F0020141F00101FA
:101690000C48016100BF0098401C00900948016996
:1016A00001F0010018B1084C0098A042F3D3064C99
:1016B0000098A04201D1002018BD0248406980B2C4
:1016C000FAE7000000800240FFFF040003480068C2
:1016D00040F001000149086070470000009002409E
:1016E00000B50120FFF736FFFFF7A2FC0120FFF74E
:1016F0001FFF0120FFF744FC0120FFF7FDFB00BDA9
:1017000001210160002141608160C16001614FF4ED
:101710008041416100218161C1614FF4006101623A
:10172000002141628162C162016341638163C163DF
:10173000402101642021416400218164C16401656C
:1017400041658165C1650166802141660021816630
:10175000C166016741678167C1674FF08061C0F86A
:1017600080104910C0F884100021C0F888104FF490
:101770000011C0F88C100021C0F89010C0F894102F
:10178000C0F89810C0F89C10C0F8A0104FF000717D
:10179000C0F8A4104912C0F8A8108901C0F8AC1014
:1017A0004912C0F8B0100021C0F8B410C0F8B81049
:1017B0007047000038B503460C4600210020009019
:1017C0001448016901F01C014FF4784000EAC3207D
:1017D00001434FF4F86000EA8410014341F0020134
:1017E00041F001010B484261016100BF0098401CBB
:1017F00000900848016901F0010018B1064D0098F9
:10180000A842F3D3044D0098A84201D1002038BD6E
:101810000120FCE700800240FFFF0400F0B50A460B
:1018200000210023002400BF3DE0012505FA01F35B
:10183000156805EA03049C4234D105684F0003266D
:10184000BE40B543056015794E00B5400668354386
:1018500005601579012D02D01579022D16D1856804
:101860004F000326BE40B543856055794E00B54014
:10187000866835438560456801268E40B5434560DE
:10188000456896798E40B6B235434560C5684F00CD
:101890000326BE40B543C560D5794E00B540C66845
:1018A0003543C560491C1029BFD3F0BDF0B50023F6
:1018B00000244D07ED0E02FA05F3CE1000F12005CD
:1018C00055F826504E07F70E0F26BE40B543CF10F1
:1018D00000F1200646F82750CE1000F1200555F8FB
:1018E000265045EA0304CE1000F1200545F82640B5
:1018F000F0BD418370470183704700BFFEE70000E1
:101900002DE9F04105460E461746984600244DB98C
:1019100000BF05E057F8240004A1FEF7D7FE641CC1
:10192000B442F7D302A0BDE8F08100006C6564000A
:101930002F53544D3332463478374C45442E687417
:101940006D6C000000B58BB04548007810B10128DF
:101950007CD10CE0434801F0D9FA002042490860EC
:1019600001203F49087041A0FEF7A8FC74E03D4803
:1019700040683D4908600846006800282BD00220D6
:1019800037490870374801F023FB37480068000EDC
:101990008DF81C0034480068000C8DF81D0032489A
:1019A0000088000A8DF81E002F4800788DF81F006F
:1019B0009DF81C009DF81D10CDE900109DF81E300B
:1019C0009DF81F2035A102A8FEF784FC02A937A0CC
:1019D000FEF774FC3EE02348006AC07C042839DD31
:1019E00003201F4908701F4801F0F2FA3A4802F03C
:1019F0005FF90A906FF0FF0002F05AF9099036483B
:101A0000093802F055F9089008AB09AA0AA9154847
:101A100004F048F80A208DF81C0001208DF81D0004
:101A2000A8208DF81E00C0208DF81F009DF81C0016
:101A30009DF81D10CDE900109DF81E309DF81F2067
:101A400026A102A8FEF746FC02A900E003E027A0B9
:101A5000FEF734FC00E000BF00BF0BB000BD00008B
:101A60003C01002074070020300100200A0D206C8A
:101A70006F6F6B696E6720666F72200A0D20444895
:101A8000435020736572766572200A0D20706C6574
:101A900061736520776169742E2E2E002025642ED7
:101AA00025642E25642E2564000000000A0D20699F
:101AB0007020616464726573732061737369676E0B
:101AC00065642062792061206468637020736572A8
:101AD00076657220257300000A01A8C020202564C5
:101AE0002E25642E25642E25640000000A0D207327
:101AF00074617469632069702061646472657373D2
:101B000073203A202573000000B587B003F0F6FD7E
:101B100003F044FF002006900590049009480A490C
:101B2000002204ABCDE90021029005AA06A90748CE
:101B300003F07CFF054803F0C9FF044804F020F8D7
:101B400007B000BD41370008AD370008740700201A
:101B500001B51E4900980968401AFA2804D31B49A8
:101B60000098086006F09AFE194900980968401A22
:101B700041F28831884204D315490098086001F089
:101B80008FFD144900980968401AB0F5FA7F0ED30A
:101B900010490098086000F097FD0F48007802286F
:101BA00005D00D480078032801D0FFF7CBFE0B4984
:101BB00000980968401A4EF66021884204D307490C
:101BC0000098086000F0F6FB08BD00002801002026
:101BD0002C010020340100203C01002038010020AD
:101BE00010B5024801F0FAFD10BD00007407002096
:101BF00000BFFEE77047704729B1064A12680243EA
:101C0000044B1A6004E0034A12688243014B1A60D5
:101C1000704700003038024029B1064A126802437A
:101C2000044B1A6004E0034A12688243014B1A60B5
:101C3000704700001038024029B1064A126802437A
:101C4000044B1A6004E0034A12688243014B1A6095
:101C50007047000044380240F0B500210022002403
:101C6000022500260223324F3F6807F00C0121B104
:101C7000042905D0082937D105E02E4F076036E04A
:101C80002D4F076033E02A4F3F1F3F68C7F3805650
:101C9000274F3F1F3F6807F03F036EB1264FB7FB4A
:101CA000F3F7DFF88CC0ACF1040CDCF800C0CCF327
:101CB000881C07FB0CF40CE01E4FB7FBF3F7DFF8B2
:101CC00070C0ACF1040CDCF800C0CCF3881C07FB3E
:101CD0000CF4174F3F1F3F68C7F301477F1C7D007F
:101CE000B4FBF5F7076002E0124F076000BF00BFCA
:101CF0000F4F3F6807F0F0010909104F7A5C076841
:101D0000D74047600A4F3F6807F4E051890A0B4FFC
:101D10007A5C4768D7408760054F3F6807F46041A9
:101D2000490B064F7A5C4768D740C760F0BD00009A
:101D3000083802400024F40000127A00BC010020A0
:101D400002460020044B186820F0EC6042EA0103D0
:101D50001843014B18607047083802407047000074
:101D60000149086070470000DC0027420CB50020E4
:101D7000019000903448006840F480303249086097
:101D800000BF3148006800F4003000900198401C0A
:101D90000190009818B90198B0F5A04FF1D12A48E8
:101DA000006800F4003010B10120009001E0002034
:101DB00000900098012846D123484030006840F048
:101DC00080502149403108602048006840F440407C
:101DD0001E4908601C48083000681B49083108602B
:101DE0000846006840F4004008600846006840F477
:101DF000A05008601648091F0860081F006840F0DE
:101E00008070091F086000BF0F48006800F0007074
:101E10000028F9D040F205700E4908600A480830E1
:101E2000006820F00300084908310860084600688F
:101E300040F00200086000BF03480830006800F06E
:101E40000C000828F8D10CBD00380240007000409A
:101E500008544007003C0240042808D14FF0E0211C
:101E6000096941F004014FF0E022116107E04FF0F1
:101E7000E021096921F004014FF0E022116170476F
:101E800010B500F035F810BD10B51548006840F4E5
:101E90007000134908601348006840F001001149C0
:101EA000086000200F49083108600E4800680E499C
:101EB00008400C4908600D48091D0860081F0068AB
:101EC00020F48020091F0860002006490C310860BA
:101ED000FFF74CFF4FF0006001498039086010BDEA
:101EE00088ED00E000380240FFFFF6FE10300024CD
:101EF0000448006820B103480068401E014908609A
:101F000070470000B401002001F40072B2F5007FB8
:101F100000D100BFCA430280704721B1828942F4D8
:101F20000052828104E082894DF6FF731A4082815B
:101F3000704702460020B1F5007F00D100BF138832
:101F40000B400BB1012000E0002070472DE9FF4756
:101F500005460E460024A14600BFA046B08900B148
:101F600000BF2C8A24F44054F08804432C82AC89AE
:101F700041F20C608443B088318908437189084379
:101F80000443AC81AC8A24F44074B0890443AC822D
:101F90006846FFF761FE2048854202D01F4885420F
:101FA00002D1DDF80C9001E0DDF80890A88900F47A
:101FB000004040B109EBC90000EB0910316849004D
:101FC000B0FBF1F707E009EBC90000EB091031683D
:101FD0008900B0FBF1F76420B7FBF0F004012009A1
:101FE000642101FB1078A88900F4004040B1322040
:101FF00000EBC800B0FBF1F000F00700044308E07C
:10200000322000EB08106421B0FBF1F000F00F006B
:1020100004432C81BDE8FF870010014000140140FB
:10202000C1F308028280704700BFFEE7014600BF8F
:10203000704700001FB504460122074B606ACDE9D6
:10204000000304F12B03CDE90202044A194620469D
:1020500001F082FA04B010BDD62F0208D02F02087A
:102060007FB504460D46606A002850D0606A00794A
:1020700000284CD094F82B008DF800002C20005D37
:102080008DF801002D20005D8DF802002E20005DEE
:102090008DF803002F20005D8DF804003020005DD6
:1020A0008DF80500D5F80E000390A8690290606ACB
:1020B0000079012806D0606A0079022817D1606A89
:1020C0004079A0B90398616A096888420BD00298E8
:1020D000616A0968884219D1062205F1080168463B
:1020E000FEF7C0F990B1204600F05BF80EE00398CF
:1020F000616A0968884209D1062205F1080168462B
:10210000FEF7B0F910B1204600F034F800BF7FBDF3
:102110002DE9F04105460E462F214A5D3021495DEB
:1021200042EA0121104A881801F0C2FD074603F077
:102130003DFD0446686A407A0444A0B20B4940EA77
:1021400001040948844201D204F57E4408488442CF
:1021500001D9A4F57E4400BF00BF204601F0A8FDD0
:102160003060BDE8F08100000001FEA90000FEA97A
:10217000FFFEFEA970B50446012575B1606A007ABC
:10218000002803DD204600F00CF809E02046FFF7A8
:1021900051FF6420616A087202E0204600F001F8F5
:1021A00070BD70B505466C6A0026284603F074FCC5
:1021B00010B1284603F090FC00206860A860E86039
:1021C0006CB90A2003F0CCFA044614B94FF0FF3082
:1021D00070BD00202060606020816C6205E00020FE
:1021E0002071E08060712060207221462846FFF750
:1021F0008FFF607A401C6072284600F002F830467B
:10220000E6E710B5416A01220A7100224A713022C4
:10221000125C13062E22125C43EA02432D22125C4A
:1022200043EA02222F231B5C1A43436A13B1436A19
:102230005B7A00E000231A440A23B2FBF3F403FBA9
:102240001422CA804A7A0A2A02DD4FF41672CA8022
:1022500010BD70B504460D4600BF04B970BD00BF87
:10226000206A58B1206A807C082807D12868216A32
:10227000896A884202D1204600F054F900BFEDE798
:102280002DE9FC41064600BF0EB9BDE8FC8100BF48
:10229000346A00BF04B9F8E700BFA06C401C70B1FD
:1022A000A06C1E303C21B0FBF1F5B5F5803F01D3A9
:1022B0004FF6FF752584208C08B901202084E06C3E
:1022C000401C70B1E06C1E303C21B0FBF1F5B5F55F
:1022D000803F01D34FF6FF756584608C08B90120FB
:1022E000608404F12C0008B9002000E0E06A01904D
:1022F0000198C0B9019803F059FC070E7F2F05DC47
:102300004FF07F4001F0D4FC01900BE0C02F05DBC3
:102310006FF0FF0001F0CCFC019003E0164801F0E3
:10232000C7FC019000BF04F1300008B9002000E0B4
:10233000206B0090009848B9A06A0199084000906D
:10234000012001F0B5FC00990843009004F1280138
:10235000304603F0D3FB01A9304603F00BFC69467D
:10236000304603F0C5FB304603F00AFC0A21204644
:1023700000F0C4FD00BF88E70000FFFF2DE9F04139
:1023800005462C6A0821204600F0B8FD002204F121
:102390002801284601F01CF80746E07C401CE07448
:1023A0004FF4FA7606F2F310314690FBF1F0E08339
:1023B000BDE8F08110B50F48046817E0206AA0B1AD
:1023C000206A418C481E226A5084012903D120468C
:1023D00000F02CFE09E0206A018C481E226A10845D
:1023E000012902D1204600F011FE2468002CE5D11D
:1023F00010BD0000F001002070B5064600BF16B900
:102400006FF0090070BD00BF346A00BF14B96FF0EF
:102410000800F7E700BF00BF00BF00BF00BF0022F9
:102420004FF49A71104603F0CDFB6061606910B9FA
:102430004FF0FF30E6E700BF00BFE07C20B937482F
:102440000068401C354908603448006820606069B5
:102450004068A0610120A1690870A1694870062048
:10246000A16988700020A169C870206801F020FC73
:10247000A16948600020A1690881A1694881A1691A
:10248000C860A07C0A2805D0A07C052802D0A07CCA
:10249000042802D17068A169C8600020A1690861A0
:1024A000A1694861A169886100250DE096F82A00BC
:1024B000A84203DD06F12B00405D00E00020A16989
:1024C0001C314855681C85B2102DEFD3002505E05E
:1024D0000021A0692C304155681C85B2402DF7D3EE
:1024E000002505E00021A0696C304155681C85B2CB
:1024F000802DF7D30A4801F0DBFBA169C1F8EC009D
:102500000020A083002504E0A069F0304555681C38
:1025100085B2442DF8D3002074E70000DC010020D0
:10252000635382632DE9F84305462C6A00260C218B
:10253000204600F0E3FC2846FFF75EFF064646BB58
:1025400001223521204600F015FA0421204600F032
:1025500021FA04223221204600F00CFAA06A03F08E
:1025600025FB80464146204600F01DFA204600F03B
:102570004CFAA28BF03291B2606903F03CFD0095F9
:1025800043230B4A6169606806F0B6FB284600F0F9
:1025900011F8E07C401CE07442F2107707F2F3106F
:1025A0004FF4FA7190FBF1F0E0833046BDE8F88318
:1025B000CC2F020870B5054600BF05B970BD00BF3D
:1025C0002C6A00BF04B9F9E700BF00BF00BF00BF1D
:1025D00000BF606910B1606903F097FC0020606182
:1025E000A06100BFEAE70000F8B505462C6A0026A6
:1025F000334808B9002001E031480068A062062194
:10260000204600F07BFC2846FFF7F6FE0646002E2B
:1026100039D101223521204600F0ACF901212046B4
:1026200000F0B8F902223921204600F0A3F9298DE3
:10263000204600F0D9F904223721204600F09AF90B
:102640000121204600F0A6F90321204600F0A2F95E
:102650001C21204600F09EF90621204600F09AF940
:10266000204600F0D2F9A28BF03291B2606903F0FB
:10267000C2FC00954323134A6169606806F03CFB85
:102680002846FFF797FFE07C401CE074E07C0628BA
:1026900003DAE17C0120884000E03C2000EB4001AF
:1026A000C1EBC0104FF6FF7101EAC00707F2F3104B
:1026B0004FF4FA7190FBF1F0E0833046F8BD000072
:1026C000C82F0208CC2F020810B50F48046818E084
:1026D000206AA8B1206AC08B012805DD206AC08B62
:1026E000401E216AC8830BE0206AC08B012807D1F5
:1026F000206AC08B401E216AC883204600F0A6FCD9
:102700002468002CE4D110BDF001002010B504466F
:10271000A06820B1A06802F0C9FF0020A060E068B6
:1027200028B1E06802F0C2FF0020E060208210BD06
:10273000014608787047014611F8013B180611F868
:10274000013B40EA034011F8013B40EA032011F845
:10275000012B1043704770B503460D460026D8681C
:10276000002847D0188A002844DDDA68002114E0E8
:10277000505C342806D1881C81B208464C1CA1B29A
:10278000165C0AE0505CA84201D1501870BD481C8C
:1027900081B2505C401C084481B2188A884202DD34
:1027A000505CFF28E4D126B3012E04D1986800F1D3
:1027B0006C0280240AE0022E04D1986800F12C02F9
:1027C000402403E0986800F12C02C02400210AE0B4
:1027D000505CA84201D15018D8E7481C81B2505C27
:1027E000401C084481B2A14202DA505CFF28EFD1BC
:1027F00000BF00BF0020C9E72DE9F04107463C6A51
:102800000020E0622063606333212046FFF7A3FFCE
:1028100005461DB1A81CFFF78EFF60643A212046D3
:10282000FFF799FF054625B1A81CFFF784FFA064B8
:1028300002E0606C4008A0643B212046FFF78BFF5C
:10284000054625B1A81CFFF776FFE06401E0606C47
:10285000E064A068103008B9002001E0A0680069B9
:10286000A06201212046FFF776FF054635B1A81C7E
:10287000FFF761FF064601F01BFAE06203212046E4
:10288000FFF769FF054635B1A81CFFF754FF064660
:1028900001F00EFA20631C212046FFF75CFF05467D
:1028A00035B1A81CFFF747FF064601F001FA606347
:1028B00006212046FFF74FFF0546F5B1681CFFF7DC
:1028C00037FF8008A063A06B022801D90220A06313
:1028D00000260EE0022101EB86014819FFF72BFFCD
:1028E000804601F0E5F904F13C0141F82600701C36
:1028F000C6B2A06BB042EDD800BFBDE8F0810000C9
:1029000070B50446256A204603F0E6F809492046DA
:1029100003F0F4F80749204603F0EAF80549204699
:1029200003F028F90C21284600F0E8FA2046FFF7CA
:102930005BFE70BDC82F02082DE9F04105462C6AE8
:1029400036212046FFF707FF06468EB1B01CFFF781
:10295000F2FE074601F0ACF96062A068103008B9D9
:10296000002001E0A0680069A062284600F044FA57
:10297000BDE8F08110B500BF00BF848B631C83836A
:102980008369F0331955848B631C83838369F03327
:102990001A5510BD00BF00BF838B5A1C8283826909
:1029A000F032D154704710B500BF00BF0B0E848BBE
:1029B000621C82838269F0321355C1F30743848B12
:1029C000621C82838269F0321355C1F30723848B22
:1029D000621C82838269F0321355848B621C82836D
:1029E0008269F032115510BD10B500BF00BF0B0A4F
:1029F000848B621C82838269F0321355848B621C43
:102A000082838269F032115510BD00BF00B9704752
:102A100000BF00BF00BF00BF00BFFF22838B591C57
:102A200081838169F031CA5408E000BF00BF0022F1
:102A3000838B591C81838169F031CA54818B44296D
:102A4000F3D3017F01F003010029EED100BFDEE7DF
:102A5000F8B505462C6A0421204600F04FFA2846B6
:102A6000FFF7CAFC064626BB012235212046FFF7A8
:102A700081FF03212046FFF78DFF022239212046E6
:102A8000FFF778FF298D2046FFF7AEFF2046FFF7BE
:102A9000BCFFA28BF03291B2606903F0ACFA0095F2
:102AA0004323104A6169606806F026F92846FFF75B
:102AB00081FDE07C401CE074E07C0A2805DAE07CC3
:102AC0004FF47A7110FB01F001E042F2107087B20E
:102AD00007F2F3104FF4FA7190FBF1F0E083304607
:102AE000F8BD0000CC2F02082DE9F84305462C6AFA
:102AF0000321204600F002FA2846FFF77DFC064637
:102B0000002E32D1012235212046FFF733FF032169
:102B10002046FFF73FFF022239212046FFF72AFF18
:102B20004FF410712046FFF75FFF04223221204648
:102B3000FFF720FFA06A03F039F88046414620469F
:102B4000FFF731FF2046FFF760FFA28BF03291B212
:102B5000606903F050FA00954323104A6169606888
:102B600006F0CAF82846FFF725FDE07C401CE0741B
:102B7000E07C0A2805DAE07C4FF47A7110FB01F062
:102B800001E042F2107087B207F2F3104FF4FA71CD
:102B900090FBF1F0E0833046BDE8F883CC2F0208CB
:102BA0002DE9F05F82461546D046D8F82040D5F88A
:102BB00004B000BF00BF68892C2800DA6DE09BF8E4
:102BC0000000022800D068E000270AE008F12B008E
:102BD000C15D0BF11C00C05D814200D05DE0781C3E
:102BE000C7B298F82A00B842F0DCDBF8040002F023
:102BF000DDFF2168884200D04FE02946204600F0E2
:102C000077FA00B149E035212046FFF7A4FD81465F
:102C1000B9F1000F00D140E009F10200FFF788FD93
:102C20000646052E1AD1A07C012808D14046FFF7A0
:102C3000E3FD0020E0834046FFF7A0FB2CE0A07CF2
:102C4000032805D0A07C042802D0A07C052823D12D
:102C50000020E0834046FFF713FB1DE0062E11D154
:102C6000A07C032808D0A07C012805D0A07C0428E3
:102C700002D0A07C052805D10020E0834046FFF764
:102C80003FFE09E0022E07D1A07C062804D10020D7
:102C9000E0834046FFF750FE00BF2046FFF736FDB9
:102CA000284603F032F9BDE8F09F0000F8B505466C
:102CB0002C6A0D21204600F021F900206062E062BC
:102CC000A06260632063E064A0646064A06328463F
:102CD000FFF792FB0646E6B9012235212046FFF7B1
:102CE00049FE07212046FFF755FE2046FFF78DFEDF
:102CF000A28BF03291B2606903F07DF90095432315
:102D000004F124026169606805F0F6FF2846FFF7C8
:102D100051FCE07C401CE074E07C0A2805DAE07C91
:102D20004FF47A7110FB01F001E042F2107087B2AB
:102D300007F2F3104FF4FA7190FBF1F0E0832846AC
:102D400002F0CAFE0649284602F0D8FE0449284689
:102D500002F0CEFE0249284602F00CFF3046F8BDD4
:102D6000C82F0208F8B505462C6A0521204600F058
:102D7000C5F82846FFF740FB06462EBB0122352149
:102D80002046FFF7F7FD03212046FFF703FE02224E
:102D900039212046FFF7EEFD298D2046FFF724FE5E
:102DA0002046FFF732FEA28BF03291B2606903F049
:102DB00022F90095432304F124026169606805F05B
:102DC0009BFF2846FFF7F6FBE07C401CE074E07CAC
:102DD0000A2805DAE07C4FF4FA6110FB01F001E00B
:102DE00044F6206087B207F2F3104FF4FA7190FBBB
:102DF000F1F0E0833046F8BD2DE9F84305462C6A32
:102E00000121204600F07AF82846FFF7F5FA064639
:102E1000002E53D1012235212046FFF7ABFD0321BF
:102E20002046FFF7B7FD022239212046FFF7A2FD19
:102E3000298D2046FFF7D8FD042232212046FFF7D6
:102E400099FDA06A02F0B2FE804641462046FFF797
:102E5000AAFD042236212046FFF78CFD606A02F0AD
:102E6000A5FE804641462046FFF79DFD04223721FE
:102E70002046FFF77FFD01212046FFF78BFD032150
:102E80002046FFF787FD1C212046FFF783FD062122
:102E90002046FFF77FFD2046FFF7B7FDA28BF032FB
:102EA00091B2606903F0A7F800954323124A616963
:102EB000606805F021FF2846FFF77CFBE07C401CA2
:102EC000E074E07C062803DAE17C0120884000E021
:102ED0003C2000EB4001C1EBC0104FF6FF7101EA4E
:102EE000C00707F2F3104FF4FA7190FBF1F0E083A2
:102EF0003046BDE8F8830000CC2F0208827C8A426D
:102F000002D081740022C2747047000070B505467B
:102F1000002600BF15B96FF0090070BD00BF2C6A14
:102F200095F8310020F0080085F83100288DB0F5C3
:102F3000107F02DA4FF0FF30EFE74CB9502002F07B
:102F40000FFC044614B94FF0FF30E6E72C6208E0AE
:102F5000606810B1606805F0AFFE00BF00BF00BF41
:102F600000BF50212046FDF78AFB05F093FE60600C
:102F7000606838B9204602F099FB002004462862B8
:102F8000401ECAE744221049606805F035FD43221F
:102F90000D49606805F068FD2A460C49606805F037
:102FA00087FE2846FFF720FB06462EB1284600F094
:102FB0000FF84FF0FF30B0E795F8310040F008000F
:102FC00085F831003046A8E7C82F0208A12B000879
:102FD00070B50446256A00BF04B970BD00BF94F8FF
:102FE000310020F0080084F831006DB1686820B12C
:102FF000686805F061FE0020686000BF00BF2846D9
:1030000002F054FB0020206200BFE6E770B50546E1
:103010002C6AA07C012805D0A07C0A2802D0A07CC4
:10302000052802D12846FFF79DFE70BD70B5054604
:103030002C6AA07C012805D0A07C0A2802D0A07CA4
:10304000052802D12846FFF703FD70BD70B505467F
:103050002C6AA07C0C2802D0A07C062803D128462C
:10306000FFF7C2FA43E0A07C01280DD1E07C0528DF
:1030700003DC2846FFF7C0FE39E02846FFF716FEBE
:103080002846FFF7B1FA32E0A07C08280AD1E07C9C
:10309000012803DC2846FFF771F928E02846FFF7EE
:1030A000EFF824E0A07C052803D12846FFF75AFE5C
:1030B0001DE0A07C04280DD1E07C082803DC284614
:1030C000FFF7C6FC13E02846FFF7F0FD2846FFF7A0
:1030D0008BFA0CE0A07C032809D1E07C022803DAFB
:1030E0002846FFF701FD02E02846FFF77DFA70BD94
:1030F00070B504460D4600BF14B96FF0090070BDED
:1031000000BF2046FFF702FB2889F0280CD9288948
:10311000F0382082208A02F023FBE060E06818B9D2
:1031200000202082401EEAE7F02002F019FBA06098
:10313000A06850B9E06828B1E06802F0B7FA002052
:10314000E06020824FF0FF30D9E70023F0222846CC
:10315000A16802F091FE064600BF00BFE06840B1E2
:10316000228AF0232846E16802F086FE064600BF68
:1031700000BF0020C3E700002DE9FC5F064689463A
:10318000174600BF0EB9BDE8FC9F00BF78892A280A
:1031900003DA384602F0B9FEF5E7D7F8048008F103
:1031A0000E04012000F091FD2188884215D140F2E3
:1031B000046000F08AFDA18888420ED14FF40060BF
:1031C00000F083FD6188884207D140F6060000F0D8
:1031D0007CFDB8F80C10884203D0384602F095FE0A
:1031E000D1E721463046FEF73BFFD4F80E000190B0
:1031F000A0690090706810B94FF0000A07E00098CD
:103200007168884201D1012000E000208246BAF1B5
:10321000000F07D0012304F1080201A9304605F090
:10322000D1FD06E0002304F1080201A9304605F0B3
:10323000C9FDE08800F049FD012802D002283ED1F6
:1032400038E0BAF1000F33D0022000F03EFDE080FC
:10325000D4F80E00A0617068C4F80E0000BF00BF73
:103260000625706A20B1706A007908B1174801E03C
:1032700004F10800834614E0681EC5B204F108009A
:10328000415D0A3041551BF8050008F8050019F8A2
:10329000051004F10800415519F8051008F1060061
:1032A0004155002DE8DC39463046B269904700E0D0
:1032B00000BF05E001A93046FEF7CBFF00E000BFEC
:1032C00000BF384602F021FE00BF5CE7D02F0208A5
:1032D0002DE9F04104460F4600BF0CB9BDE8F0816E
:1032E00000BF7D6805F10E06F068A1680840D4E9CA
:1032F00001121140884200D0F0E70023AA1D06F118
:103300000C01204605F05EFD00BFE7E72DE9FC411A
:1033100004460E4615460E21304602F02DFE18B129
:103320006FF00100BDE8FC8100272146284601F02E
:1033300015FC08B1254F40E04FF0704002F036FC1C
:10334000296800EA01084FF0604002F02FFC804538
:103350001DD101208DF8000000208DF801005E20B5
:103360008DF80200286802F021FCC0F306408DF8B9
:103370000300286802F01AFC000A8DF8040028688F
:1033800002F014FCC0B28DF805006F4615E0286805
:10339000A1680840D4E901121140884207D0E068D2
:1033A00010B104F10C0502E06FF00300BAE73246F9
:1033B0002946204600F00CF8B4E73B4604F12B0206
:1033C0003146204600F04AF9ACE70000D02F020851
:1033D0002DE9F84F81460F46164609F12B0A4FF0AA
:1033E000FF3000904946384601F0B8FB78B94FF0FD
:1033F000704002F0DBFB396800EA01054FF06040E5
:1034000002F0D4FB854202D00FB1386818B96FF0D2
:103410000900BDE8F88F0121384600F035FA04466E
:10342000002C01DA2046F4E704EB8400494901EB63
:103430008000807B30B9012004EB8401454A02EB17
:103440008101887300BF00BF04EB8400414901EB98
:103450008000807B012800D02EB93946484600F014
:10346000E7F8009000BF002E71D004EB84003949CA
:1034700001EB8000807B02280CD104EB840001EB7F
:10348000800000F1080352463146484600F0E6F855
:1034900000905CE004EB84002E4901EB8000807B0F
:1034A000012854D14FF0000B354608E000BF00BFA3
:1034B000287B012802D04FF0010B02E02D68002D7F
:1034C000F4D100BFBBF1000F10D0298900220320E6
:1034D00002F078FB05466DB13146284602F071FCDA
:1034E00040B1284602F011FD002503E0354628468C
:1034F00002F0BDFD55B3062002F082FA8046B8F115
:10350000000F1FD00020C8F80000C8F8045004EBDA
:103510008400104951F8200060B104EB84010D4A89
:1035200052F8210000E0006801680029FBD1C0F8D2
:10353000008004E004EB8400064941F8208000206C
:10354000009002E0284602F0E0FC00BF00BF0098B7
:103550005FE70000707E00202DE9FF4F83B0074633
:1035600089469A46DDF840B00020029000222A21C8
:10357000032002F027FB8046B8F1000F04D14FF082
:10358000FF3007B0BDE8F08F00BF00BFD8F804607F
:1035900006F10E05139800F098FBE88000BF00BF0D
:1035A0000624786A20B1786A007908B11F4800E0E3
:1035B0000598019012E0601EC4B21AF8041005F1DB
:1035C000080001551198015D05F11200015501989F
:1035D000005D305519F80410B01D0155002CEADCCF
:1035E000DBF80000C5F80E0012980068A861012001
:1035F00000F06BFB28804FF4006000F066FB6880F1
:1036000040F2046000F061FBA88040F6060000F084
:103610005CFBB08141463846BA699047029040460B
:1036200002F073FC4FF000080298AAE7D02F0208BE
:103630007FB504460D460121064A201D04F12B03E7
:103640008DE825000391044A19462046FFF784FFC0
:1036500004B070BDD62F0208D02F02082DE9F04724
:1036600006460F46904699467D6800BF00BF062477
:1036700008E0601EC4B219F80400285518F80410B8
:10368000A81D0155002CF4DC4FF4006000F01DFB78
:10369000A88139463046B2699047BDE8F0870000FE
:1036A00010B5002446E004EB8400244901EB8000BF
:1036B000C07B401C04EB8401204A02EB8101C873EB
:1036C00004EB8400114601EB8000807B022806D1C8
:1036D00004EB840001EB8000C07BF0280EDA04EBE1
:1036E0008400164901EB8000807B012820D104EB87
:1036F000840001EB8000C07B022819DB04EB84000E
:103700000E4951F8200060B104EB84010B4A52F8D5
:10371000210000F0C1F9002004EB8401074A42F8BF
:103720002100002004EB8401044A02EB810188732C
:10373000601CC4B20A2CB6DB10BD0000707E0020F5
:103740002DE9F04104460D466668B08900F0BDFAE7
:103750000746B7F5006F03D0A7F60600E8B915E0F5
:1037600021462846FFF7B4FD6FF00D01204602F018
:1037700003FC30B100BF00BF204602F0C6FB0024AE
:1037800003E02946204601F0B7FA0BE0224605F196
:103790002B012846FFF7F0FC04E0204602F0B5FBC1
:1037A000002400BF00BF0020BDE8F08110B5044632
:1037B00000BF00BF732084F832007421332001550C
:1037C000044860610448A061204601F07DFE0020AD
:1037D00010BD00000D330008F555000870B5044613
:1037E000204601F0B1FE064616B94FF0FF3070BD1D
:1037F000214630462269904705461DB1304602F009
:1038000084FB00262846F2E72DE9F04180460E466B
:103810000EB1307810B90020BDE8F08134460025A3
:103820002BE008F1F40040F82540274626212046E9
:10383000FCF7FCFD04461CB100202070641C08E06D
:1038400020213846FCF7F2FD04460CB10020207020
:1038500000243D213846FCF7E9FD07463FB1002032
:103860003870781C08F59A7141F8250004E00021B1
:1038700008F59A7040F825106D1C102D01DA002C07
:10388000CFD12846C8E700002DE9FC5F05460F466A
:103890004FF00A08C1460A260024A34600200190E2
:1038A000B2460090CDB17148007800EB80007049BD
:1038B00001EB8000807B02280FD128686B490978D2
:1038C00001EB81016A4A02EB81014968884204D117
:1038D0006648007840B2BDE8FC9F002473E00A2EE1
:1038E00008D104EB8400624901EB8000807B08B9B9
:1038F00066B266E004EB84005D4901EB8000807BEA
:10390000012836D165B1286804EB8401584A02EBDE
:1039100081014968884203D15448047060B2DAE7F3
:1039200004EB8400524951F8200088B104EB840074
:1039300001EB8000C17B0098814242DB4FFA84FAA0
:1039400004EB84004A4901EB8000C07B009038E022
:1039500004EB8400464901EB8000C07B584530DB16
:103960004FFA84F804EB840001EB800090F80FB06C
:1039700027E004EB84003E4901EB8000807B0228B5
:103980001FD165B1286804EB8401394A02EB81013B
:103990004968884203D13548047060B29BE704EB64
:1039A0008400334901EB8000C17B0198814208DB30
:1039B0004FFA84F904EB84002D4901EB8000C07BB1
:1039C0000190601CC4B20A2C89DB0A2E02D107F0D8
:1039D000010010B107F0020010B14FF0FF307AE79C
:1039E0000A2E01DAF4B222E0B9F10A0F03DA09F083
:1039F000FF0400BF1BE0B8F10A0F02DA08F0FF0471
:103A000015E0BAF10A0F0FDA0AF0FF0404EB8401A3
:103A1000174A52F8210000F03FF8002004EB84011F
:103A2000134A42F8210002E04FF0FF3053E700BF95
:103A300000BF002004EB84010D4A02EB8101887372
:103A400045B105B900E0286804EB8401084A02EB9F
:103A500081014860002004EB8401054A02EB8101EA
:103A6000C8730248047060B235E70000820200208B
:103A7000707E002070B504460D46E1B20548FEF7A1
:103A8000CFFA00BF40210348FEF753FA0028F9D0CF
:103A9000204670BD0010014070B5044600BF00BF55
:103AA00000BF00BF0AE02546246800BF00BF686869
:103AB00002F02BFA2946062001F060FF002CF2D11B
:103AC00070BD0146D1E90102801A704710B5044665
:103AD000204600F001F810BD10B5014600200FE0AF
:103AE00000EB4002084B03EBC2028A4207D10022DE
:103AF00000EB4003044C04EBC3031A7502E0401CC6
:103B00000A28EDDB00BF10BD84020020002114E074
:103B100001EB41000B4A02EBC000007D60B90120BF
:103B200001EB4102074B03EBC202107501EB4100B0
:103B30001A4602EBC0007047491C0A29E8DB002046
:103B4000F9E700008402002070B50646FFF7DEFFAB
:103B500005460DB9002070BD0D4C11E0304661687E
:103B6000FCF7B4FD58B9A0682860E0686860E068B8
:103B7000A8600020E860207C28742846EBE72468D1
:103B8000002CEBD12846FFF7A7FF0020E3E7000059
:103B9000945D01082DE9F04104460F461646D4E92C
:103BA0000110884203D14FF0FF30BDE8F081D4E925
:103BB0000101451AB54200DD3546A268206881182A
:103BC0002A463846FCF7E4FCA0682844A060284652
:103BD000EBE7000070B504462B480068F0B12B48B5
:103BE0000068D8B12A480068C0B1002512E0274813
:103BF000006850F8251004F12E00FCF767FD40B96D
:103C0000C02204F1300128461F4B1B68984760858D
:103C100070BD6D1C1E4800688542E8DB04F12E0073
:103C2000FCF74CFCA72804D204F12E00FCF746FC5C
:103C300000E0A7200646122216A104F13000FCF78E
:103C4000ECFC324604F12E0104F14200FCF7A0FC2A
:103C500006F1120004F13001084413A10A68026061
:103C60008A88828089798171002206F1190004F125
:103C700030010A540846FCF721FC064600BF00BF8D
:103C8000668500BFC4E700005800002060000020E7
:103C90005C0000203C623E2A2A2A554E4B4E4F576C
:103CA0004E205441472000002A2A2A3C2F623E0021
:103CB0000146080601F47F4240EA022001F47F0237
:103CC00040EA122040EA1160704701460806000CE5
:103CD00040EA1120704700002DE9F04104460D46EE
:103CE000904627460121284604F00BFC00F034FDE5
:103CF00006461EB94FF0FF30BDE8F0813146284638
:103D000002F008FB0949284604F08CFA08492846C5
:103D100002F00CFE04220749284603F0A3FC0649E2
:103D2000284604F0EBFB0020E6E7000041410008D4
:103D30008D3D0008F9400008F146000870B50546C1
:103D40000C460021284602F0E5FA0021284604F03E
:103D500069FA0021284602F0E9FD002211462846B2
:103D600003F080FC0021284604F0C8FB204600F048
:103D700001FD284602F04AFB064626B1042202490C
:103D8000284603F06FFC70BDF940000870B504468A
:103D90000E46254615B1284600F0ECFC70BD00002B
:103DA0002DE9F74F064691464FF00008002086F8AF
:103DB0002C00019800782F2827D10198407820BB4B
:103DC000002414E0434951F83400FFF7BDFE80465B
:103DD000404850F834000190B8F1000F06D03D483B
:103DE00000EBC400007986F82C0002E0641C052C6E
:103DF000E8D300BFB8F1000F64D101A800F072F859
:103E00008046002086F82C005CE03F210198FCF7FA
:103E10000DFB054615B1002028706D1C2E4800686A
:103E200070B32E48006858B300271CE02B48006888
:103E300050F837100198FCF749FC98B929463046EC
:103E4000FFF7E2FC82462548006800EBC70006F554
:103E50009A7306F1F4025146D0F804C03846E047A0
:103E6000019004E07F1C1C4800688742DEDB00BF35
:103E700019480068874203D115B16D1E3F20287094
:103E80000198FFF761FE8046B8F1000F03D101A849
:103E900000F028F88046B8F1000F13D0002086F813
:103EA0002C0000240BE00E4850F824100198FCF779
:103EB000C7FA18B1012086F82C0002E0641C042C1B
:103EC000F1D300BF4A4641463046019B00F038F826
:103ED000BDE8FE8F9887010868000020640000207C
:103EE0004800002070B504460CA020602068FFF751
:103EF0002BFE05467DB90CA020602068FFF724FE4C
:103F0000054645B90BA020602068FFF71DFE054659
:103F10000DB900202060284670BD00002F343034D9
:103F20002E68746D6C0000002F3430342E68746D70
:103F3000000000002F3430342E7368746D6C000064
:103F40002DE9F04104460D4616469846002D2AD02C
:103F50000020208584F8F1002868E06168686062CC
:103F60002868206225602868606000BF00BF68681C
:103F700060610020207600BF00BF2068007CB8B1DF
:103F8000B6B10DA16269606802F0EEF807464FB164
:103F9000391D6268881A6168014461606169091AA3
:103FA000616100BF04E000202060606060612076F5
:103FB0000020BDE8F08100000D0A0D0A000000009D
:103FC0002DE9F74F84B00C460498D0F8009000BF5C
:103FD00000BF00BF00BF206808B9606820B16FF063
:103FE0000A0007B0BDE8F08FA06810B9C4F80890C7
:103FF00003E04946A06801F0B4FEA068006898B1EB
:10400000A068008940F2FF31884202DAA068008986
:1040100001E040F2FF308046002342463149A0686B
:1040200001F02AFF2F4E04E0D9F80460B9F80A80A5
:1040300000BFB8F1070F42DB42462BA1304602F029
:1040400093F88246BAF1000F39D000200390042281
:1040500026A13046FCF751FA08B9F51C04E000200F
:1040600030716FF00900BCE7681C801BA8EB0000F2
:1040700080B202901FA1681C029A02F075F80746F0
:104080003FB919A1681C029A02F06EF80746012098
:104090000390681C381A80B201907FB1AF420DD9ED
:1040A000681C0090002028700022DDE900014254C5
:1040B0002046039A0099FFF773FE92E700BFA068BD
:1040C00001F076FE8346A0680089B0F5806F05DABE
:1040D000BBF10A0F02DC6FF00D0082E76FF0090000
:1040E0007FE70000740300200D0A000047455420BC
:1040F000000000002000000070B505460E462C466A
:104100002CB921463046FFF719FE002070BD207EF5
:10411000401C2076207E042805D121463046FFF73A
:104120000DFE0020F2E74CB1206838B12146304640
:1041300000F04EF810B1304603F034F80020E5E707
:104140002DE9FF4107460D4698466FF004063C46B0
:10415000B8F1000F02D1029800B18CB9029838B1C1
:1041600002980189284604F077F8029801F0CDFE04
:1041700021462846FFF7E2FD002004B0BDE8F081AB
:1041800002980189284604F067F8206838B92A4661
:10419000214602A8FFF714FF064600BF00BF06F144
:1041A0000E0030B1A06820B1A06801F0AEFE002082
:1041B000A06026B92146284600F00AF806E006F17C
:1041C0000A0018B921462846FFF7B8FD0020D4E7B9
:1041D0002DE9F84305460C464FF0000900276069B9
:1041E000002842D1206830B921462846FFF7A6FDB5
:1041F0000020BDE8F8832068FFF763FC002805DC99
:1042000021462846FFF79AFD0020F2E7E06808B152
:10421000266915E0288F460000BFB0B201F0A0FA71
:10422000E060E06808B1266105E0304606EBD07139
:104230004E10642EF1DC00BFE06808B90020D8E71A
:104240003246E1682068FFF7A5FC0646002E05DA35
:1042500021462846FFF772FD0120CAE76661E06843
:1042600060606662E068E06100BF94F82C00A8BB63
:10427000B5F86E006169884203D2B5F86E0000900F
:1042800004E0A08A80B2009000BF00BFB5F838807B
:104290004FEA4800BDF80010884203DA4FEA484070
:1042A000000C009094F82C0008B1012000E00020E0
:1042B00003466A462846616800F071FA0746002FF7
:1042C0000BD14FF00109BDF8001060680844606030
:1042D000BDF800106069401A6061F6E1FFE7B5F8CB
:1042E0006E0000906168E06988423CD96168E069CD
:1042F000401AB5F86E10884203DDB5F86E000090E4
:1043000006E000BF00BFA08BA188401A80B20090D9
:10431000B5F838804FEA4800BDF80010884203DA4B
:104320004FEA4840000C009094F82C0008B101209E
:1043300000E0002003466A462846616800F02FFA34
:1043400007465FB94FF00109BDF8001060680844E6
:104350006060BDF800106069401A6061B5F86E00D9
:1043600008B9484645E76DE1BDF8000008B9484680
:104370003FE794F8F100052815D2DFE800F00315B7
:10438000349BFA00E0690078D749096809788842C7
:1043900003D1012084F8F1002085606A401E60622C
:1043A000E069401CE0614CE1208D052805D100202A
:1043B0002085022084F8F10014E0E0690078218D66
:1043C000C94A1268515C884203D1208D401C208567
:1043D00002E0002084F8F100606A401E6062E0693B
:1043E000401CE0612DE1208DB0B9E0690078202803
:1043F0000BD0E0690078092807D0E06900780A2826
:1044000003D0E06900780D2806D1606A401E606222
:10441000E069401CE06114E1E0690078B349096893
:10442000097888420FD0E069007820280BD0E06935
:104430000078092807D0E06900780A2803D0E069ED
:1044400000780D2820D1208D18B9002084F8F100C3
:1044500029E0032084F8F10000BF00BF94F8280091
:1044600084F82D000021228D04F12E008154E06992
:1044700000789E4909680978884202D10120208588
:1044800011E0002020850EE0208D012808DAE06987
:104490000178228D501C208504F12E00815402E009
:1044A000002084F8F100606A401E6062E069401CF0
:1044B000E061C6E0208DB0B9E069007820280BD01B
:1044C000E0690078092807D0E06900780A2803D05D
:1044D000E06900780D2806D1606A401E6062E069DC
:1044E000401CE061ADE0E0690078218D7F4A1268F0
:1044F000515C884242D1606A401E6062E069401CA3
:10450000E061208D022835D12046FFF763FB0020B3
:104510002085042084F8F100E06920626168206A47
:10452000884234D96168206A401ABDF80010884278
:1045300004DA208CA188401A80B2009094F82C00F4
:1045400008B1012000E0002003466A462846616861
:1045500000F025F90746D7B94FF00109BDF8001062
:10456000606808446060BDF800106069401A6061CE
:104570000DE00DE0208D401C208508E0606A401EA3
:104580006062E069401CE061002084F8F10058E0BE
:104590006168206A88422BD96168206A401ABDF898
:1045A0000010884204DA208CA188401A80B2009062
:1045B000BDF8000068B194F82C0008B1012000E0BB
:1045C000002003466A462846616800F0E8F807467E
:1045D00000E000277FBB4FF00109BDF800106068C4
:1045E00008446060BDF800106069401A606128E00E
:1045F000208D618D88421FDA608D218D401ABDF8B3
:104600000010884204DA608D218D401A80B200903B
:10461000228D04F13000111801236A46284600F06B
:10462000BEF8074667B94FF00109208DBDF80010AC
:104630000844208504E004E00020208584F8F1008F
:1046400000BF00BF606A10B1002F3FF48DAE94F838
:10465000F100042839D06168E069884235D9616881
:10466000E069401AB5F86E10884203DDB5F86E00B7
:10467000009006E000BF00BFA08BA188401A80B266
:104680000090288F4000BDF80010884203DA288F80
:104690004004000C009094F82C0008B1012000E0C8
:1046A000002003466A462846616800F078F807460D
:1046B0005FB94FF00109BDF8001060680844606000
:1046C000BDF800106069401A6061606950B92068E7
:1046D000FFF7F7F9002805DC21462846FFF72EFBF7
:1046E000002086E5484684E5C0870108C4870108A4
:1046F0002DE9F04104460E461746254615B900201F
:10470000BDE8F0810020287629463046FFF760FD9D
:104710000020F5E700BF00BF00BF00BF024A1060E5
:10472000024A116070470000640000206800002009
:1047300000BF00BF00BF00BF00BF00BF034B186039
:10474000034B1960034B1A607047000058000020AB
:10475000600000205C00002010B54FF4BA7000F03B
:10476000FFFF044624B14FF4BA712046FBF787FFE0
:10477000204610BD10B5044684B1206820B12068E1
:10478000FFF7A4F900202060E06820B1E06800F0A5
:104790008DFF0020E060204600F088FF10BD2DE96D
:1047A000F047064688461746994600BF00BF3C883A
:1047B00000BF4B4622464146304604F0A5F8054668
:1047C000681C68B9B6F86E0018B1B6F87000082811
:1047D00001DB012404E0204604EBD071C1F34F0457
:1047E000681C08B9012CE4DC3C802846BDE8F08751
:1047F00010B50448044A06CA06C001210838FFF76C
:1048000089FF10BDB0000020B8B1010810B500F05C
:104810002FF8FFF7EDFF024800F004F810BD00008C
:10482000C82F020870B5044602F06CFC054600BFB4
:1048300000BF0121284603F064FE5022214628468D
:1048400001F06AFD064600BF00BFFF21284602F0C6
:10485000F1FB054600BF00BF2946284601F05AFD7E
:104860000249284601F0F4FC70BD0000D93C000864
:1048700010B50122024801680248FFF759FF10BD38
:10488000AC000020D509000870B505460C4622464C
:104890000321284600F0B9F870BD2DE9FF5F0546F9
:1048A00089466C68208801F087F9C0F303204FEA3D
:1048B0008008C8F10001284601F05EFB10B9288984
:1048C000042800D298E0686890F800A0BAF1080FB8
:1048D0007CD101264FF0704001F068F9216900EAAF
:1048E000010B4FF0604001F061F9834500D10026D3
:1048F000494604F1100000F031F900B1002626B954
:10490000284601F002FBBDE8FF9F2889082800D255
:1049100072E0284600F0C2F818B1284601F0F5FA16
:10492000F1E72221284601F027FB48B341462846FB
:1049300001F022FB10B100BF00BF61E02989002215
:10494000022001F03FF9064606B959E000BF00BF5A
:104950002946304601F035FA10B100BF00BF4FE0E4
:104960007468C8F1000001B2304601F005FB10B1D7
:1049700000BF00BF44E0284601F0C7FA354608E012
:104980006FF02101284601F0F7FA10B100BF00BF17
:1049900036E06F68E06803902069E060039820616A
:1049A000002038707880208901F006F9C0B240F408
:1049B0007F463046FFF789F920810020608141461B
:1049C000284601F0D9FA10B100BF0EE00EE0012038
:1049D0000021FF230A46CDE90109009104F10C01F1
:1049E000284600F089FA064600BF00E000BF00BF7D
:1049F000284601F08AFA86E7284601F086FA82E71F
:104A0000284601F082FA00BF7DE72DE9FC47064603
:104A10000F46904600222421012001F0D3F80546DC
:104A20000DB9BDE8FC8700BF00BFD6F804906C68E4
:104A3000277084F801800020A080E08071686A6897
:104A400002F108001C22FBF7A3FD002060806989A9
:104A5000204600F019F8608001200021FF2309F1B1
:104A60000C02CDE90010284600F02CFA284601F08F
:104A70004CFA00BFD5E770B505460C4622460B211F
:104A80002846FFF7C2FF70BD70B504460D462946A3
:104A9000204600F0CBFDC04380B270BD2DE9F0414F
:104AA000064600240027354617E06989686800F04B
:104AB000BDFD0444A0B200EB1444688900EBD07142
:104AC0004910A0EB410139B1C7F10100C7B2E0B212
:104AD000C4F3072141EA00242D68002DE5D127B158
:104AE000E0B2C4F3072141EA0024E04380B2BDE80C
:104AF000F081000030B515480068154AB0FBF2F1AE
:104B0000481EB0F1807F01D301201BE0481E4FF00A
:104B1000E022506150170F22002807DA13071D0EFC
:104B20000C4B00F00F04241F1D5503E013071C0E4F
:104B3000094B1C5400BF00204FF0E0229061072079
:104B40001061002008B100BFFEE730BD000000206A
:104B500040420F0018ED00E000E400E030B50346ED
:104B60001A68D04300B10AB9012030BD91F8310074
:104B700000F0020008B90020F7E74868904201D130
:104B80000020F2E718688C682040D1E901452C40EC
:104B9000A04208D1886822EA00008D68EC43A04258
:104BA00001D10120E1E70020DFE700002DE9F74F08
:104BB00086B08846B8F8280005901420019002229B
:104BC0000021104600F0FEFF054625B94FF0FF30EA
:104BD00009B0BDE8F08F059868812881454820F02C
:104BE000030068606C680698142241682046FBF751
:104BF000CFFCE08800F0E0FF0746C7F30C0004900C
:104C000007F40050039006980089143886B205997D
:104C1000A1F11400C11700EB5171C1F3CF0B61E09A
:104C200005981438B04201DB012000E0002002901A
:104C30000498C0F30C00039940EA0107029808B9F0
:104C400047F40057029808B1304601E04FEACB0024
:104C50001FFA80FA524604F11401019B069801F0F4
:104C60000BF90199084480B201903846FFF72DF8FE
:104C7000E0800AF1140188B2FFF727F86080002075
:104C8000608114212046FFF7FFFE6081029828B161
:104C900006F1140081B2284601F0ADF90022114658
:104CA000022000F08FFF8146B9F1000F0DD0294698
:104CB000484601F072F8D8F8143049464046089A40
:104CC0009847484601F021F905E0284601F01DF912
:104CD0004FF0FF307CE7A6EB0A0086B204985844F8
:104CE00080B20490002E9BD1284601F00EF90020DE
:104CF0006EE70000937800202DE9F05F06460F462E
:104D00004FF0010A7468208800F056FF0421B1EBCF
:104D1000203F05D0304601F0F8F80020BDE8F09FB4
:104D2000208800F049FFC0F303284FF6FF7000EA27
:104D30008808608800F040FF81467089404502DBAA
:104D40003089484504DA304601F0DFF80020E5E715
:104D50004946304601F04FF94FF0010B3D4600BF88
:104D6000284600F099FE70B1281D60B1686850B106
:104D700020696968884205D0294604F11000FFF7D0
:104D8000EDFE00B10DE0BBF1000F04D04FF0000BC1
:104D90004948056800E02D68BD4200D12D68002D0E
:104DA000DED100BF7DB9208900F006FFC0B2112816
:104DB00009D104EB0801488800F0FEFE442802D126
:104DC0003D464FF0000ABAF1000F19D0E068B8B1C3
:104DD000394604F10C00FFF7C1FE60B94FF0704096
:104DE00000F0E4FEE16800EA010B4FF0604000F0E3
:104DF000DDFE834504D1304601F087F800208DE7C1
:104E000025B9304601F081F8002087E743F6FF70AE
:104E1000FEF75BFFE188084038B1304600F0EAF861
:104E200006460EB9002079E77468244807602448D4
:104E300004603946304601F063F9A8BB208900F0D0
:104E4000BBFEC0B201280DD0062806D011280ED115
:104E50003946304603F03AFE25E03946304601F047
:104E6000A5FD20E039463046FFF717FD1BE0394627
:104E700004F11000FFF772FE88B94FF0704000F0A7
:104E800095FE216900EA010B4FF0604000F08EFEB4
:104E9000834504D0746002213046FFF7F5FC3046AC
:104EA00001F033F800BF00BF002004490860044946
:104EB000086000BF32E70000F0010020700200200F
:104EC000740200202DE9FE4F05460E4614461F468B
:104ED000DDE90C89204600F0CFFA5FEA000A02D132
:104EE000001FBDE8FE8F3B462246314628468DE82E
:104EF000000700F001F8F4E72DE9F05F06460F46E1
:104F000090469A460C9DB8F1000F5BD04FF0140903
:104F10001421304601F030F818B16FF00100BDE8FF
:104F2000F09F746800BF00BF208900F045FE6AF35F
:104F30001F208346FEF7C9FE2081208900F03CFE39
:104F400001120B9840EA012B5846FEF7BEFE208165
:104F5000B8F1000F01D1002001E0D8F80000206175
:104F6000CB464FEAE97109EB917189104FF4804209
:104F700042EA01210A9A114388B2FEF7A6FE208078
:104F80003089FEF7A2FE60800020E080184800888B
:104F9000FEF79BFEA08016480088401C144908803C
:104FA0000FB1386830B9281D08B9002000E06868E2
:104FB000E06004E00FB9002000E03868E060002005
:104FC000608102E0746804F11008288D48B13089CE
:104FD000298D884205DD424629463046FFF7E6FD29
:104FE0009DE74246314628466B69984797E700009F
:104FF000780200202DE9FC5F804600200090D8F860
:105000000450288800F0D8FDC0F303201421B1EB30
:10501000800F00D0B1E0E88800F0CEFDC0F30C00B6
:105020004FF6FF7101EAC00A688800F0C5FD8346AB
:10503000288800F0C1FDC0F30320ABEB800080B2F4
:105040000190404600F0B4FE06464E48018888199B
:105050000A280ADD3146284600F0D0F920B1494837
:10506000008830440A2800DD87E04748046812E0E1
:105070006069E968884209D1A0692969884205D137
:10508000A089A988884201D1012000E0002000B158
:1050900003E000942468002CEAD100BF34B9314603
:1050A000284600F03DF9044694B966E0E88800F02F
:1050B00083FDC0F30C0058B9E08900F07DFDC0F31A
:1050C0000C0028B11422294604F10800FBF760FA0D
:1050D0002C48008830442B490880E88800F06CFD9B
:1050E00000F4005030B9A07F40F00100A077019893
:1050F0005044A0834146204600F048F8D0B3A08B2E
:105100001430A083606840680768606845681422AE
:1051100004F108012846FBF73BFAA08BFEF7D5FD0A
:1051200068800020E880688114212846FFF7ACFCE5
:105130006881D4F804800CE0D7F804906FF0130174
:10514000384600F019FF3946404600F00AFED9F80B
:105150000070002FF0D12046009900F0CBF84046B7
:1051600000F026FE07490988081A064908804046CB
:10517000BDE8FC9FFFE70020FAE7404600F0C5FECF
:105180000020F5E7800200207C0200202DE9FE4F80
:1051900081460E46002501200090D6F804A0BAF8FA
:1051A000020000F009FD8346BAF8000000F004FD9B
:1051B000C0F30320ABEB800080B20190BAF8060088
:1051C00000F0FAFCC0F30C004FF6FF7101EAC000DA
:1051D000029000BF00BF7468002020600298A08089
:1051E000DDE901100844E080D9F804802AE0D8F80D
:1051F0000470A088B988884210DAC4F8008055B1DC
:10520000A088E988884203DBE088B988884200DD0D
:1052100060E02E6001E0C9F8046016E0A088B9885B
:10522000884200D156E0A088F988884200DA51E02F
:105230002DB1E888B988884201D000200090D7F8C5
:1052400000803D46B8F1000FD1D100BFB8F1000F8A
:105250000ED14DB100BF00BF2E60E888A188884202
:1052600006D00020009003E000BF00BFC9F8046032
:1052700099F81E0000F0010050B3009828B3D9F847
:1052800004004068808810B1002000901DE0254691
:10529000D4F800800BE0D8F80440E888A188884260
:1052A00002D00020009005E02546D4F80080B8F137
:1052B000000FF0D100BF009838B100BF00BF00BFA1
:1052C00000BF00BF00BF00BF00BF0098BDE8FE8F59
:1052D0000020FBE7304600F06BFD05490988081AFD
:1052E00003490880304600F010FE0020EEE7000081
:1052F0008002002070B504460D4608480068A042B0
:1053000003D106492068086003E000BF00BF2068A1
:1053100028602146052000F031FB70BD7C02002092
:1053200070B505460E46052000F06AFB044664B9D8
:105330003146284600F062F8B04203DB052000F059
:105340005FFB04460CB9002070BD20212046FBF70E
:1053500096F90320E077064800682060044804605E
:105360001422294604F10800FBF712F92046EBE766
:105370007C0200202DE9F04704468846002600BF45
:1053800000BFB8F1000F01D000BF00BF60684768E0
:10539000B88898B9656838686060142204F108011B
:1053A0006868FBF7F5F801212846FFF764FB2846FB
:1053B00000F0FEFC0644284600F0A7FD65680AE000
:1053C0006F68A9463D68484600F0F2FC064448462E
:1053D00000F09BFD00BF002DF2D141462046FFF7B3
:1053E00089FF00BF00BF04480088801B0249088075
:1053F0003046BDE8F0870000800200202DE9F05F14
:1054000005468946002700BF0026B346B246194824
:1054100004681DE06069E968884207D1A0692969CC
:10542000884203D1A089A988884201D0012000E0E8
:10543000002048B10AF1010A0EB9264604E0E07FD7
:10544000F17F884200DC2646206800B1A34624682C
:10545000002CDFD12EB159463046FFF78BFF804636
:1054600047444F4502DABAF1010FCDDC3846BDE8BA
:10547000F09F00007C02002070B5054610480468CB
:105480000EE0204600F008FB48B12868A1680840FB
:10549000D4E901121140884201D1204670BD246830
:1054A000002CEED10748006820B10648006800F0E3
:1054B000F3FA08B90020F1E702480068EEE70000BF
:1054C000F0010020F401002070B50446062084F8A5
:1054D0002A00022084F82B0000212C2001552D20C9
:1054E00001552E2001552F2001553020015504F182
:1054F0002B010020FBF7BEFF40F2DC50208532205C
:1055000084F8310002220C490C48FBF74BFD0422C1
:105510000B490C48FBF702FD002507E0074901EBAA
:1055200045104FF44001FBF765FD6D1C022DF5DBC6
:10553000FCF7D6F870BD00003C2000202C080020AD
:105540006C080020AC0700202DE9F04F87B083469F
:105550000027B846002601A8FBF712FE01A807C8DD
:1055600004AB07C304981FFA80F9DDF814A00322E6
:105570004946104600F026FB064666B1344608E070
:1055800062890AEB07016068FBF702F8608907444B
:105590002468002CF4D1154800688068012803D9DC
:1055A00012480068056800E0069D4FF0000805E01D
:1055B0004FF000402860ED6808F101080B480068D2
:1055C00080684045F4D80020084909688860084888
:1055D000406900F0800020B180200549486100202A
:1055E0008860304607B0BDE8F08F0000D40100208D
:1055F000009002402DE9F04180460E4600250A4801
:1056000000688768344607E0628978196168FAF7AC
:10561000BFFF608905442468002CF5D1A8B2FBF7D0
:10562000ABFF0020BDE8F081CC0100202DE9F04166
:1056300080460E460024454608E0287807026D1C87
:10564000287807436D1C3C44B01E86B2012EF4DC62
:10565000002E02DD287807023C44A0B200EB14447F
:10566000200C000410B1A0B200EB1444A0B2FEF76D
:105670002CFBBDE8F08100004FF4E130FBF7B2FAFB
:10568000FFF738FAFBF7F8FAFCF73EFAFFF7BEF837
:1056900008E0FBF7CDFB08B1FCF7A2FA024800686E
:1056A000FCF756FAF5E70000F000002070B505465B
:1056B00005B970BD00BF00BF00BF00BF0C48006847
:1056C000854203D30B480068854200D3F1E7A5F17A
:1056D000080400BF00BF0020207107480068844212
:1056E00001D205480460204600F0C6FC00BFE0E798
:1056F000E0010020E4010020E801002000BF00BF1D
:10570000124921F00301124A1160114608684FF452
:10571000205101800021418001711146096801F585
:1057200020510C4A11600121126811714FF420516F
:10573000084A12681180074A126851800121064AFE
:10574000117003490968054A11607047332C002025
:10575000E0010020E4010020EC010020E80100202D
:1057600070B502460AB9002070BDD01C20F00300BD
:1057700082B20C2A00DA0C22B2F5205F01DD002093
:10578000F2E730480088304E3688801B83B253E001
:105790002D480068C118087900284AD10E8803F105
:1057A0000800301A904244D30E8803F10800361ADC
:1057B00002F11400864218D303F10800104485B2A8
:1057C00021480068441900202071088820806380E7
:1057D0000D80012008712088B0F5205F07D0208857
:1057E000194E36683044458001E0012008711548A3
:1057F0000068814214D107E0124800680088124E08
:10580000366830440F4E30600E480068007928B189
:105810000C4800680D4E3668B042EDD100BF00BFA5
:1058200000BF00BF00BF00BF00BF00BF01F1080004
:105830009AE705480068C35AC2F520509842A7DC91
:10584000002091E7E8010020E0010020E4010020B1
:105850002DE9F04106460A46D01C20F0030082B232
:105860000C2A00DA0C22B2F5205F02DD0020BDE830
:10587000F08100BF00BF3E480068864203D33D4828
:105880000068864201D33046F1E7A6F108043848A3
:105890000088201A85B22088401B083887B200BFD4
:1058A00000BFBA4201DD0020E1E7BA4201D1304633
:1058B000DDE72088DFF8B8C0DCF800C000EB0C01A1
:1058C000087980BB088805F1080C94441FFA8CF312
:1058D000DFF8A4C0DCF800C08C4508D1DFF890C028
:1058E000DCF800C09C44DFF89080C8F800C0DFF806
:1058F00080C0DCF800C00CEB03014FF0000C81F815
:1059000004C008804D802380B1F800C0BCF5205F42
:1059100008D0B1F800C0DFF85880D8F80080C4443F
:10592000ACF8023022E0FFE702F11400B8421DD8C3
:1059300005F10800104483B20D480068C1180E48F4
:105940000068814201D20C48016000200871208863
:1059500008804D8023800888B0F5205F06D0088835
:10596000DFF80CC0DCF800C06044438030467EE7BE
:10597000E0010020E4010020E801002001B97047A7
:1059800000BF00BF0A46044B53F820301360024B9F
:1059900043F8202000BFF2E74454002010B5002057
:1059A00001E0431C98B20928FBDB114B23F00301F3
:1059B000002019E000230F4C44F8203000220CE0B6
:1059C0000C4B53F820300B600A4B43F820100A4B65
:1059D00033F810301944531C9AB2084B33F8103086
:1059E0009342EDDC431C98B20928E3DB10BD0000B4
:1059F0006B54002044540020902F0208A22F02086C
:105A0000024600BF092A01DB0020704700BF06489C
:105A100050F8221031B1044B086843F8220000BF4F
:105A200000BF00BF0846F0E7445400202DE9F047CE
:105A300004460D4616461F46DDE909A9DDF820801B
:105A400000206060A060E06084F831002062606245
:105A5000C4F81C800E48007884F834000C480078A4
:105A6000401C0B490870C4F810903B46324629464A
:105A7000204600F017F82046D04710B10020BDE8BE
:105A8000F087044800682060024804602046F6E77A
:105A9000F8010020F0010020014691F8310000F0EB
:105AA000010070472DE9F04106460F4614461D4699
:105AB0003946304600F022F82146304600F05AF8C8
:105AC0002946304600F014F8BDE8F081014908602D
:105AD00070470000F401002090F8311001F001013E
